:020000040C00EE
:1000000000C8FF1F010200089102000891020008C9
:10001000910200089102000891020008000000000F
:100020000000000000000000000000009102000835
:1000300091020008000000009102000891020008EF
:100040009102000891020008910200089102000844
:1000500091020008F94B0008910200089102000883
:1000600091020008000000000000000000000000F5
:1000700091020008000000009102000891020008AF
:100080009102000891020008910200089102000804
:1000900091020008910200089102000891020008F4
:1000A000910200089102000800000000000000001A
:1000B0000000000000000000000000000000000040
:1000C0000000000000000000000000000000000030
:1000D0000000000000000000000000000000000020
:1000E00000000000000000009102000891020008DA
:1000F0009102000891020008DD4B000891020008FF
:100100009102000891020008910200089102000883
:1001100000000000000000000000000000000000DF
:1001200000000000000000000000000000000000CF
:100130009102000891020008910200082548000879
:1001400000000000000000000000000000000000AF
:100150009102000891020008000000000000000069
:100160009102000891020008910200089102000823
:100170009102000891020008910200089102000813
:100180009102000891020008910200089102000803
:1001900091020008910200089102000891020008F3
:1001A00091020008910200089102000891020008E3
:1001B00091020008910200089102000891020008D3
:1001C000000000000000000000000000000000002F
:1001D0000000000000000000910200080000000084
:1001E000910200089102000800000000910200083E
:1001F00000000000000000000000000000000000FF
:10020000DFF86CD01B4880471B4C1C4DAC4209DA10
:1002100021686268A368043BA2BFC858D050FAE7BF
:100220000C34F3E7164B174CA34208DA19685A68E6
:100230000020043AA4BF8850FBE70833F4E71248D3
:100240008047124880470000107F000C00C8FF1F45
:10025000AC020000107F000C00C8FF1F000000006F
:10026000ACCAFF1F8C00000000000020000000004E
:1002700000C8FF1F9502000848020008600200083D
:10028000600200087002000895580008654D0008DB
:10029000FEE7000098B500AF084A4FF0005314463F
:1002A0000FCB84E80F00064B064A07CA83E8070015
:1002B00003F07AFD03F0E2FD98BD00BFC45F0020AB
:1002C000D45F00208400002080B584B000AF2F4BA5
:1002D000DB6803F48033002B3ED02D4BDB6803F04A
:1002E0000103002B02D02B4BFB6002E003F0BCFDAE
:1002F000F860274B1B6803F00403002B20D0244B2D
:100300009B6803F070631B0E0133BB60204B9B683E
:1003100003F4FE431B0A01337B601D4B9B6803F40F
:10032000FE031B0C01333B60BB683A6802FB03F31E
:10033000FA68B2FBF3F37A6802FB03F3FB600DE0AB
:10034000134B9B6803F07F0301333B60FA683B6803
:10035000B2FBF3F3FB6001E00E4BFB600B4BDB6881
:10036000DBB20133FA68B2FBF3F3FB60074B1B69A6
:1003700003F001030133FA68B2FBF3F3FB60064AB2
:10038000FB6813601037BD4680BD00BF00460050BB
:100390001047005000366E01C05F002080B582B06B
:1003A00000AF78607B68074A934207D14FF48030F2
:1003B00000F0EAFA4FF4803000F076F90837BD46D5
:1003C00080BD00BF0040044080B485B000AFF8603D
:1003D0000B467A60FB72FB7A9B08DBB21846FB7A0D
:1003E0009B08DBB21A46FB68043253F82220FB7AE2
:1003F00003F00303DB001946F8238B40DB4302EADA
:100400000301FB68021D43F82210FB685A6FFB7A58
:100410005B00194603238B40DB431A40FB685A6795
:10042000FB68384A93420AD1FB681A6EFB7A0121B5
:1004300001FA03F3DB431A40FB681A6642E07B686B
:100440001B78DBB25BB2002B3CDA7B685A68FB7A24
:100450009A40FB685A60FB7ADB08DBB21846FB7AED
:10046000DB08DBB21A46FB68103253F82220FB7A15
:1004700003F007039B00194607238B40DB4302EA86
:100480000301FB6800F1100243F82210FB7ADB083D
:10049000DBB21846FB7ADB08DBB21A46FB68103287
:1004A00053F822207B681B7A1946FB7A03F0070376
:1004B0009B0001FA03F342EA0301FB6800F110021A
:1004C00043F82210FB7A9B08DBB21846FB7A9B08A4
:1004D000DBB21A46FB68043253F822207B681B7893
:1004E0001946FB7A03F00303DB0001FA03F342EA47
:1004F0000301FB68021D43F822101437BD465DF866
:10050000047B7047008E024880B400AF034B1B6829
:100510001846BD465DF8047B704700BFC05F0020F1
:1005200080B400AF034BD3F8C4301846BD465DF825
:10053000047B70470040005080B584B000AF786005
:10054000FFF7C2FE0B4B1B680B4AA2FB03239A0C5E
:100550007B6802FB03F37B600023FB6003E000BFCA
:10056000FB680133FB60FA687B689A42F7D3103767
:10057000BD4680BDC05F002083DE1B4380B400AF5A
:10058000034B5B681846BD465DF8047B704700BFAF
:100590007440005080B483B000AF7860034A7B6839
:1005A000D3600C37BD465DF8047B70477440005043
:1005B000B0B584B002AF7860002000F0C5F800F05C
:1005C000B3FA7B68DB79002B0AD000F0EBFA00BFAE
:1005D00000F0D6FA034683F00103DBB2002BF7D11B
:1005E0007B685B7A184600F029F900BFFFF798FF97
:1005F0000346002BFAD17B681B7A184600F06EFA8E
:100600007B681B7C184600F037F97B685B7C1846DA
:1006100000F05AF97B689B7C184600F041F97B6832
:10062000DB7C184600F064F97B689B79002B0AD0CC
:1006300000F0F0FA00BF00F015FB034683F0010361
:10064000DBB2002BF7D17B68DB78002B09D17B680C
:100650009B7983F00103DBB2002B17D000F026FB5F
:1006600014E000F013FB7B6899887B68DA787B687C
:100670005B781D467B681B781C467B689B780093E3
:10068000084611462A46234600F020FB7B68DB68BB
:10069000B3F5803F03D14FF4803000F055F8FFF7F9
:1006A00013FE0837BD46B0BD80B485B000AF78609A
:1006B0007B681B0FFB607B6823F07043BB60FA68AC
:1006C00013465B0013449B001A46044B1344BA685C
:1006D0001A601437BD465DF8047B7047144400501F
:1006E00080B485B000AF78607B681B0FFB607B68CF
:1006F00023F07043BB60FA6813465B0013449B0011
:100700001A46084B13441A68BB681340002B14BFE9
:1007100001230023DBB218461437BD465DF8047B85
:10072000704700BF0C44005080B500AFFFF7ECFEEF
:100730000246044B5B6903F0010322FA03F31846F7
:1007400080BD00BF0046005080B483B000AF786029
:100750000649064BDB6823F480327B681343CB6089
:100760000C37BD465DF8047B704700BF0046005063
:1007700080B483B000AF78600649064B9B6923F4D0
:1007800080327B6813438B610C37BD465DF8047B78
:10079000704700BF0046005080B483B000AF78605F
:1007A0000649064B5B6A23F440327B6813434B6275
:1007B0000C37BD465DF8047B704700BF0046005013
:1007C00080B483B000AF0346FB80FB88002B08D1C8
:1007D0000A4A0A4BDB6823F4807323F00103D360D9
:1007E00007E0064A054BDB6843F4807343F00103DE
:1007F000D3600C37BD465DF8047B7047104700504E
:1008000080B483B000AF0346FB7100BF094BD3F83F
:10081000C43003F00803002BF8D10749064BDB680E
:1008200023F04002FB791343CB600C37BD465DF8E3
:10083000047B7047004000500043005080B483B0F8
:1008400000AF0346FB7100BF094BD3F8C43003F07F
:100850000803002BF8D10749064BDB6823F0800220
:10086000FB791343CB600C37BD465DF8047B7047C2
:10087000004000500043005080B483B000AF786067
:100880000649064BDB6823F0FF027B68013B1343FC
:10089000CB600C37BD465DF8047B704700460050C6
:1008A00080B483B000AF78600649064B1B6A23F022
:1008B00001027B68013B13430B620C37BD465DF8B8
:1008C000047B70470046005080B483B000AF78606E
:1008D0000649064B1B6923F001027B68013B134369
:1008E0000B610C37BD465DF8047B70470046005035
:1008F00080B483B000AF78600649064B5B6923F093
:1009000001027B68013B13434B610C37BD465DF828
:10091000047B70470046005080B483B000AF78601D
:100920000649064B9B6923F007027B68013B134392
:100930008B610C37BD465DF8047B70470046005064
:1009400080B483B000AF78600649064B5B6A23F041
:10095000FF027B68013B13434B620C37BD465DF8D9
:10096000047B70470046005080B483B000AF03465C
:10097000FB71044AFB7953600C37BD465DF8047B7C
:10098000704700BF0046005080B485B000AF78606B
:100990007B681B0FFB607B6823F07043BB60FA68C9
:1009A00013465B0013449B001A46044B1344BA6879
:1009B0001A601437BD465DF8047B70474846005006
:1009C00080B485B000AF78607B681B0FFB607B68EC
:1009D00023F07043BB60FA6813465B0013449B002E
:1009E0001A46084B13441A68BB681340002B14BF07
:1009F00001230023DBB218461437BD465DF8047BA3
:100A0000704700BF4046005080B400AF054A054B18
:100A10005B6923F4803323F002035361BD465DF824
:100A2000047B70471047005080B483B000AF7860FB
:100A30003960284A274B5B6943F00103536100BFCB
:100A4000244B1B6903F00103002BF9D0214A214BF1
:100A50005B6943F0100353611E493B68013B1A0276
:100A60007B68013B1B0613434B611A4A194B5B69B8
:100A700043F040035361174A164B5B6923F01003A0
:100A80005361144A134B5B6943F48023536100BFE5
:100A9000104B1B6903F00403002BF9D00D4A0D4BDA
:100AA0005B6923F00103536100BF0A4B1B6903F02C
:100AB0000103002BF9D1074A064B5B6923F0400381
:100AC0005361054B0822DA600C37BD465DF8047BA4
:100AD000704700BF104700506041005080B582B0A1
:100AE00000AF0346FB710F4A0E4B5B6843F4801363
:100AF0005360FB79012B0ED10A4A0A4B5B6823F441
:100B0000801353606420FFF717FD064A054B5B68AE
:100B100043F4002353606420FFF70EFD0837BD4601
:100B200080BD00BF1047005080B400AF124B1B685F
:100B300003F00103002B09D10F4B01225A6000BFC3
:100B40000D4B1B6803F00103002BF9D00B4B1B6806
:100B500003F40073002B0AD0084B4FF400729A6024
:100B600000BF064B1B6803F40073002BF9D1BD4690
:100B70005DF8047B704700BF004200500044005005
:100B800080B400AF064B1B6803F00803002B0CBFBA
:100B900001230023DBB21846BD465DF8047B704795
:100BA0000043005080B500AF4FF40000FFF7F2FCA7
:100BB000174A174BDB6923F03003D36100BFFFF7FF
:100BC000DDFC034603F40003002BF8D04FF40030A3
:100BD000FFF7E0FC0E4B08225A6000BFFFF7CEFC87
:100BE000034603F40033002BF8D04FF40020FFF746
:100BF000D1FC074A064BDB6843F00803D36000BF13
:100C0000FFF7BCFC034603F40023002BF8D080BDA3
:100C100000430050B0B500AF0F4A0F4B5B6823F4A0
:100C2000803353600D4D0D4B5B6823F4702424F02A
:100C3000300403F019F90246094BA3FB02231B0DF4
:100C4000013B1B0423436B60034A034B5B6823F4A3
:100C500000335360B0BD00BF104700500047005044
:100C60006BCA5F6B80B400AF074B1B6803F4607303
:100C7000B3F5607F0CBF01230023DBB21846BD46ED
:100C80005DF8047B704700BF1047005080B400AF90
:100C9000054A054B5B6823F4803323F0020353605D
:100CA000BD465DF8047B70471047005080B400AF2C
:100CB000054A054B5B6843F4803343F002035360FD
:100CC000BD465DF8047B70471047005080B586B084
:100CD00000AFBA607B600346FB810B467B73FB89E8
:100CE0001846FFF76DFD7B7B012B40F08B80FB8965
:100CF000002B09D103F0B8F80246544BA3FB0223A2
:100D00009B0C9B057B6102E04FF0C0637B617B69BC
:100D10007A6802FB03F2BB68B2FBF3F37B617B6989
:100D20004B4AA2FB03231B099B0D3B61494A494BDC
:100D30005B6843F00103536000BF464B1B6803F040
:100D40000103002BF9D0434A424B5B6843F0100388
:100D5000536040493F4B9A683F4B13407A68013AD1
:100D600012021A433B69013B1B041A43BB68013B57
:100D70001B0613438B60374A364B5B6843F04003D6
:100D80005360344A334B5B6823F010035360314A9D
:100D9000304B5B6843F48023536000BF2D4B1B68CE
:100DA00003F00403002BF9D02A4A2A4B5B6823F096
:100DB0000103536000BF274B1B6803F00103002BA6
:100DC000F9D17B69254AA2FB03235B099B0D3B619B
:100DD0003A6A3B699A4202D2386900F045F87B6969
:100DE0005B081F4AA2FB03235B099B0D3B613A6A28
:100DF0003B699A4202D2386900F036F8386A00F04E
:100E000033F81CE01349134B9B6823F07F023B6AC5
:100E1000013B13438B6000BF0E4B1B6803F01003B4
:100E2000002BF9D00B4A0B4B5B6843F00103536076
:100E300000BF084B1B6803F00103002BF9D0094BDE
:100E40000522DA601837BD4680BD00BF83DE1B4334
:100E5000ABAAAAAA10470050FF8080F08988888832
:100E6000B7600BB66041005080B582B000AF7860CB
:100E70000B490B4B9B6823F4FE027B68013B1B0470
:100E800013438B6000BF064B1B6803F02003002B4D
:100E9000F9D03220FFF750FB0837BD4680BD00BFB8
:100EA0001047005080B483B000AF78607B68D3F8FF
:100EB000C43103F44073002B0CBF01230023DBB2C9
:100EC00018460C37BD465DF8047B704780B483B08C
:100ED00000AF7860084611461A460346FB700B4681
:100EE000BB7013467B70FA78BB781B0403F47F0356
:100EF0001A437B781B061A437B68C3F8C4210C375E
:100F0000BD465DF8047B704780B483B000AF786065
:100F10007B681B6843F040027B681A600C37BD4653
:100F20005DF8047B704700BF80B483B000AF786089
:100F30007B681B6823F040027B681A600C37BD4653
:100F40005DF8047B704700BF80B483B000AF786069
:100F500039603A687B68934238BF134618460C37AD
:100F6000BD465DF8047B704780B483B000AF786005
:100F700039603A687B68934228BF134618460C379D
:100F8000BD465DF8047B704780B588B000AF7860DF
:100F900039603B681B683A685268B3FBF2F102FBA8
:100FA00001F29B1A002B40F090800023FB6100238C
:100FB000BB613B681A683B685B68B2FBF3F3BB60DC
:100FC00019237B6100233B610023FB604BE0BB687E
:100FD0007A69B3FBF2F2796901FB02F29B1A002BEA
:100FE0003ED10023BB61BA687B69B2FBF3F3FB61BE
:100FF000FB69002B34D0FB69B3F5007F30D8FB6967
:101000003F2B0AD9FB6903F00703002B03D07B6950
:10101000013B7B6127E00123BB617B69013B3A68AF
:10102000128902FB03F32B4AA2FB03235B0B3B61F8
:101030007A693B69D31A013BFB603B69022B0FD9EC
:101040003B690F2B0CD8FB68012B09D9FB68062BD9
:1010500006D83B685B891A46FB689A4200D805E0CF
:101060007B69013B7B617B69072BB0D87B69072BD0
:101070002BD97868FFF748FFFB68013B1B0303F49B
:10108000E0423B685B89013B9B01DBB21A433B6951
:10109000013B1B0203F4706342EA0301BA69134681
:1010A0005B0013441A46FB69D340013B03F03F0346
:1010B00041EA0302BB69DB039BB21A437B681A61F6
:1010C0007868FFF731FF002300E00123184620373E
:1010D000BD4680BD5917B7D180B582B000AF7860EA
:1010E0000B46FB701346BB7000BF7868FFF7DAFE53
:1010F000034683F00103DBB2002BF6D1FB7801330A
:10110000DBB2BA7878680221FFF7E0FE0837BD4607
:1011100080BD00BF80B582B000AF78600A48FFF79D
:1011200033FC0948FFF7C0FA7B681B6823F0010213
:101130007B681A6000BF7B681B6803F00203002B0A
:10114000F9D10837BD4680BD1000001080B483B0CF
:1011500000AF78600B46FB700C37BD465DF8047B32
:10116000704700BF80B584B000AF78600023FB609B
:10117000FFF7DAFAF860FB6818461037BD4680BD05
:1011800080B588B000AFF8600B467A60FB72F868F3
:10119000FFF7C0FFFB7AF8681946FFF7D7FFF8683A
:1011A000FFF7E0FFF861FA697B68B2FBF3F3C3F580
:1011B000806300201946FFF7C7FE0346184640F239
:1011C000FF31FFF7D1FEB861BB69C3F58063FA69EF
:1011D000B2FBF3F37B61FB68DB6823F4434323F04A
:1011E000FF03FA68D360FB68DA68BB69134343F412
:1011F0008042FB68DA607B6918462037BD4680BDB7
:1012000080B586B000AF78607B681B6803F1384317
:10121000A3F5A8335B097B617B695B095A037B6992
:1012200003F01F031B0213433B617B681B687A6852
:101230001268926822F47F429A607B681B687A6821
:10124000126891683A690A439A607B68DB7903F017
:101250002003DBB2002B07D07B68DB7903F020038F
:10126000DBB2002B00D160E07B681B7E002B04D03A
:101270007B681B7E012B00D057E07B681B68202217
:10128000DA617B68DB7903F02003DBB2002B28D125
:101290007B685B68FB60FB6803F06043FB607B6816
:1012A0005B68C3F31C039B041A46FB681343FB6093
:1012B0007B681B68FA689A617B689B68FB60FB68C7
:1012C00003F06043FB607B689B68C3F31C039B04D3
:1012D0001A46FB681343FB607B681B68FA68DA6098
:1012E00009E07B681B687A6852689A617B681B68B2
:1012F0007A689268DA607B681B7E012B0CD1786873
:1013000000F01AF87B681B684FF00062DA617B68B6
:101310001B68074ADA6108E07B681B684FF40062CB
:10132000DA617B681B68034ADA611837BD4680BD05
:10133000C00020064006A00080B485B000AF7860F1
:101340000323FB737B681B7E012B22D17B681B6808
:101350002022DA617B681B687A681268126822F0C2
:1013600070617A68127B120602F070620A431A609A
:101370007B681B687A6812691A617B681B687A68E7
:1013800052695A617B681B68064ADA610023FB7365
:1013900001E00323FB73FB7B18461437BD465DF861
:1013A000047B70474000280080B487B000AF7860AD
:1013B0000123FB757B681B68DB6903F020035B0975
:1013C0003B617B681B68DB6903F480731B0AFB606D
:1013D0003B69002B02D10423FB750CE0FB68012B59
:1013E00002D10223FB7506E07B681B684FF0E062C8
:1013F000DA610023FB75FB7D18461C37BD465DF89E
:10140000047B704780B487B000AF78600123FB7520
:101410000023BB7500237B757B681B68DB6903F4C5
:101420000063DB0A3B617B681B68DB6903F0040334
:101430009B08FB603B69002B02D00323FB75A7E0F0
:10144000FB68012B02D10223FB75A1E07B681B68BE
:101450000822DA617B681B689B6903F000535B0F0D
:10146000002B40D17A68D3796FF34513D3717B6831
:101470001B689A694A4B13409B0C23F060417A68C1
:10148000536861F31C0353607B681B68DB6803F0DF
:1014900000535B0FDBB203F00103D9B27A68D37A51
:1014A00061F34513D3727B68DB7A03F02003DBB270
:1014B000002B0DD07B681B68DA68394B13409B0CFE
:1014C00023F060417A68936861F31C03936032E013
:1014D0007B681B68DB6823F060417A68936861F37E
:1014E0001C03936027E07A68D37943F02003D3711B
:1014F0007B681B689B6923F060417A68536861F3DD
:101500001C0353607B681B68DB6823F060417A68CA
:10151000936861F31C0393607B681B68DB6803F0CE
:1015200000535B0FDBB203F00103D9B27A68D37AC0
:1015300061F34513D3727B681B681B6803F070630B
:101540001B0EDAB27B681A737B681B681A697B68AA
:101550001A617B681B685A697B685A617B681B68E3
:10156000DB6903F004039B08BB757B681B68DB69C0
:1015700003F00803DB087B75BB7D002B03D07B7D6C
:10158000002B7FF463AF7B6800221A760023FB7583
:10159000FB7D18461C37BD465DF8047B704700BFD5
:1015A0000000FC1F80B483B000AF786039603B68F6
:1015B000B3F5800F06D07B681A683B681A437B68D6
:1015C0001A6005E07B689A693B681A437B689A61F8
:1015D0000C37BD465DF8047B704700BF80B483B014
:1015E00000AF78607B684FF48072DA600C37BD46DC
:1015F0005DF8047B704700BF80B582B000AF7860B3
:101600007B68084A934203D10420FFF74DF806E0B7
:101610007B68054A934202D10820FFF745F8083756
:10162000BD4680BD00C000400000014080B582B0D2
:1016300000AF78607B68084A934203D10420FFF72B
:10164000A3F906E07B68054A934202D10820FFF720
:101650009BF90837BD4680BD00C000400000014036
:1016600080B582B000AF78601020FFF77DF9786810
:10167000FFF7DCFF7868FFF7BFFF0837BD4680BD86
:1016800080B584B000AF78600B46FB707868FFF7D8
:10169000E7FF7868FFF7A2FF7B681B68FB60FB68C9
:1016A00023F44043FB60FB789B03FA681343FB6021
:1016B0007B68FA681A601037BD4680BD80B483B07D
:1016C00000AF786039603B681A687B685A613B6894
:1016D0005B79C3F34013DBB21A057B685A603B6841
:1016E0001B79C3F30303DBB21A467B685A623B687B
:1016F0005B79C3F30303DBB21A467B681A623B686B
:101700005B79C3F30013DBB21A467B689A613B68CE
:101710001B79C3F30313DBB21A467B68DA620C371A
:10172000BD465DF8047B704780B487B000AF786039
:101730000B46FB701346BB70FB780B2B36D801A20F
:1017400052F823F075170008751700087F17000876
:101750007F170008AD170008AD170008AD17000887
:10176000AD1700088917000895170008A117000891
:10177000A117000803233B6100237B611BE00C23BE
:101780003B6102237B6116E04FF440733B61082309
:101790007B6110E04FF440633B610A237B610AE008
:1017A0004FF440533B610C237B6104E000233B6119
:1017B00000237B6100BF3B69002B13D07B68D3F80B
:1017C000A830FB603B69DB43FA681340FB60BA78E2
:1017D0007B6902FA03F3FA681343FB607B68FA68DB
:1017E000C3F8A8201C37BD465DF8047B704700BFD6
:1017F00080B584B000AFF8600B467A60FB72F86881
:10180000FEF7CCFDFB681A68FB7A9B0019460F2394
:101810008B40DB431A407B681B68F97A89008B4058
:101820001A43FB681A60FA7A7B685968FB680432CD
:1018300043F822101037BD4680BD00BF80B483B08E
:1018400000AF78600B46FB701346BB70FA78BB782C
:1018500003F00303D9B27B68043201F0030189006D
:1018600053F8220020F00C00014343F822100C37FB
:10187000BD465DF8047B704780B483B000AF7860EC
:101880000B46FB701346BB70FA78BB7803F003037A
:10189000D9B27B68083201F00301090153F8220034
:1018A00020F03000014343F822100C37BD465DF8AC
:1018B000047B704780B483B000AF78600B46FB7048
:1018C0001346BB70FB789B08DBB21846FB789B087D
:1018D000DBB21A467B68043253F82220FB7803F00F
:1018E0000303DB001946F8238B40DB4302EA0301C4
:1018F0007B68021D43F82210FB789B08DBB2184678
:10190000FB789B08DBB21A467B68043253F822202E
:10191000BB78F97801F00301C9008B4042EA03016A
:101920007B68021D43F822100C37BD465DF8047B2E
:10193000704700BF80B483B000AF78600B46FB7087
:101940001346BB707B685A6FFB785B001946032314
:101950008B40DB431A407B685A677B685A6FBB78C1
:10196000F97849008B401A437B685A670C37BD46AB
:101970005DF8047B704700BF80B483B000AF78602F
:101980007B689B6BDBB223F07F03DBB218460C371E
:10199000BD465DF8047B704780B483B000AF7860CB
:1019A00039607B68DA6C3B681A437B68DA640C3711
:1019B000BD465DF8047B704780B584B000AFF86029
:1019C000B9601346FB71F86800F080FAFB68114AB1
:1019D0005A63BB68DB88F868194600F01DF8FB798C
:1019E000002B08D0BB681A68BB681B79F8681146E1
:1019F0001A4600F03BF8FB684FF4A0629A63FB685C
:101A00004FF0FF32DA64FB6800221A641037BD46DB
:101A100080BD00BF03033F0780B483B000AF786090
:101A20000B467B807B8803F4F843B3F5F04F0ED16F
:101A30007B68DB6B1B0C1B047A88D2B21A437B8851
:101A40005B0003F47E431A437B68DA6308E07B683B
:101A5000DB6B1B0C1B047A8812021A437B68DA6367
:101A60000C37BD465DF8047B704700BF80B586B07B
:101A700000AFF860B9601346FB71BB68204A93421F
:101A800019D8FB68DB6B23F40032FB68DA63FB795F
:101A9000002B08D0BB68F86819460A2200F0C2FA89
:101AA0000346FB7527E0F868B9680A2200F048FA97
:101AB0000346FB751FE0BB68124A934219D8FB68C6
:101AC000DB6B43F40032FB68DA63FB79002B08D050
:101AD000BB68F8681946192200F0A4FA0346FB75A2
:101AE00009E0F868B968192200F02AFA0346FB7584
:101AF00001E00123FB75FB7D18461837BD4680BD0C
:101B0000A0860100801A060080B584B000AF78601E
:101B10000B467B8013467B707B8843F480639BB2CB
:101B2000FB607B78012B03D1FB6843F00103FB6072
:101B30007B68D3F8083103F0E063002B10D100BFBD
:101B40007868FFF719FF0346802BF9D078684FF4C7
:101B50000051FFF721FF7B68FA68C3F8802003E09B
:101B60007B68FA68C3F880211037BD4680BD00BF8E
:101B700080B584B000AF78600B467B8013467B70E5
:101B80007B8843F4A0639BB2FB607B78012B03D17D
:101B9000FB6843F00103FB607B68D3F8083103F076
:101BA000E063002B10D100BF7868FFF7E5FE034625
:101BB000802BF9D078684FF40051FFF7EDFE7B6879
:101BC000FA68C3F8802003E07B68FA68C3F88021D4
:101BD0001037BD4680BD00BF80B582B000AF7860D1
:101BE0007B68D3F8083103F0E063002B11D100BF0C
:101BF0007868FFF7C1FE0346802BF9D078684FF470
:101C00000051FFF7C9FE7B684FF4C062C3F8802023
:101C100004E07B684FF4C062C3F880210837BD46FA
:101C200080BD00BF80B582B000AF78600B46FB700E
:101C30007B68D3F8083103F0E063002B10D100BFBC
:101C40007868FFF799FE0346802BF9D078684FF447
:101C50000051FFF7A1FEFA787B68C3F8802003E00B
:101C6000FA787B68C3F880210837BD4680BD00BF85
:101C700080B582B000AF78607B68D3F8083103F09C
:101C8000E063002B11D100BF7868FFF775FE0346B3
:101C9000802BF9D078684FF40051FFF77DFE7B6808
:101CA0004FF40072C3F8802004E07B684FF40072A8
:101CB000C3F880210837BD4680BD00BF80B582B023
:101CC00000AF78607B68D3F8083103F0E063002B45
:101CD00011D100BF7868FFF74FFE0346802BF9D083
:101CE00078684FF40051FFF757FE7B684FF440725D
:101CF000C3F8802004E07B684FF44072C3F8802171
:101D00000837BD4680BD00BF80B485B000AF7860A5
:101D10007B68D3F80C3103F0E063002B03D17B68C0
:101D20005B6DFB7303E07B68D3F81C31FB73FB7BBB
:101D300018461437BD465DF8047B704780B483B005
:101D400000AF78607B689B6BDBB223F07F03DBB274
:101D500018460C37BD465DF8047B704780B483B0ED
:101D600000AF786039607B683A68DA640C37BD464A
:101D70005DF8047B704700BF80B586B000AFF860A7
:101D8000B9601346FB7110237B61F86800F09EF880
:101D9000BB681B7A002B02D0BB681B7A7B61FB7986
:101DA000002B14D0BB681B79002B09D0BB681B68C3
:101DB0001A467B69F86811461A4600F033F906E0C6
:101DC000BB681B68F86819467A6900F0B9F8BB6807
:101DD000DB79013B5A007B695B0801331B0213432B
:101DE00043F4403343F00103FA68D363BB685B7983
:101DF000013B1B0643F48172FB685A63BB689B7905
:101E0000002B09D0FB685A6BBB689B79013B1B0414
:101E10001A43FB685A6308E0FB685A6BBB685B793E
:101E2000013B1B041A43FB685A63FB684FF4A06232
:101E30009A63FB684FF0FF32DA64BB685B891A462D
:101E4000FB681A641837BD4680BD00BF80B582B0FC
:101E500000AF78600B467B807B68D3F8083103F0D5
:101E6000E063002B10D100BF7868FFF767FF0346DF
:101E7000802BF9D078684FF40051FFF76FFF7A8814
:101E80007B68C3F8802003E07A887B68C3F88021F0
:101E90000837BD4680BD00BF80B485B000AF786014
:101EA0007B68D3F80C3103F0E063002B03D17B682F
:101EB0005B6DFB8103E07B68D3F81C31FB81FB8900
:101EC00018461437BD465DF8047B704780B582B074
:101ED00000AF78607B68144A934203D07B68134A52
:101EE000934203D1124800F08BF90AE07B68114A53
:101EF000934203D07B68104A934202D10F4800F00E
:101F00007FF97B680322DA6000BF7B68DB6803F03F
:101F10000103002BF9D07B681B6C23F00F027B6858
:101F20001A640837BD4680BD00000340000203402C
:101F3000080003400000024800020248080002486E
:101F400080B58EB000AFF860B9607A60BB68632B73
:101F50005AD97B68002B57D0FEF7E6FB02462F4B81
:101F6000A3FB02235B093B62BB682C4AA2FB032351
:101F70005B09BB604FF48063FB620123BB6240F2EC
:101F8000FF337B624FF480633B6322E03B6A3A6B32
:101F900002FB03F2BB68796801FB03F3B2FBF3F3C6
:101FA000FB61FB699B0ABB61FB69C3F309037B61AE
:101FB000BB69B3F5806F09D87A697B6A9A4205D20A
:101FC0007B697B62BB69BB623B6BFB623B6B013B2A
:101FD0003B633B6B002BD9D1FB6A013B43F40042CE
:101FE000FB681A61FB685A690D4B13407A68013A25
:101FF00092021A43BB6A013B1B041A43FB685A61F5
:10200000002387F8373002E0012387F8373097F84C
:10201000373018463837BD4680BD00BF1F85EB51AD
:10202000EF8000FC80B58CB000AFF860B9607A60DA
:10203000FEF77AFB03463B62BB687A6802FB03F358
:10204000FB610123FB623A6AFB699A425FDD3A6AEF
:10205000FB6992FBF3F3BB6210E0FB6A0133FB62A6
:10206000BB687A6802FB03F31A46FB6A03FB02F3C0
:10207000FB613A6AFB6992FBF3F3BB62BB6A40F215
:10208000FE329342E9D83A6A7B68B96A01FB03F3EE
:10209000F96A01FB03F3B2FBF3F3BB613A6ABB6A73
:1020A0000133796801FB03F3F96A01FB03F3B2FB27
:1020B000F3F37B61BA687B69D31A83EAE372A2EB1C
:1020C000E372B968BB69CB1A002BB8BF5B429A4276
:1020D00002DABB6A0133BB62BB6AC3F58063BB62D1
:1020E000BB6A43F48042FB681A61FB685A690C4B77
:1020F00013407A68013A92021A43FB6A013B1B04BF
:102100001A43FB685A61002387F8273002E0012355
:1021100087F8273097F8273018463037BD4680BDFE
:10212000EF8000FC80B485B000AFF860B9603B6020
:102130001346FB71FB68D3F8083123F0E062FB68BB
:10214000C3F80821FB68D3F80821094B13403A680B
:102150001102BA681143FA7912060A431A43FB685E
:10216000C3F808211437BD465DF8047B704700BFF3
:10217000C0C0FFF880B485B000AFF860B9603B60C4
:102180001346FB71FB68D3F80C3123F0E062FB6867
:10219000C3F80C21FB68D3F80C210A4B13403A68B2
:1021A0001102BA681143FA7912060A43134343F045
:1021B0008052FB68C3F80C211437BD465DF8047BE0
:1021C000704700BFC0C0FFEF80B485B000AFF860BB
:1021D0000B467A60FB72FB689A69FB7A072101FA69
:1021E00003F3DB431A40FB7A796801FA03F31A43DD
:1021F000FB689A611437BD465DF8047B704700BFE9
:1022000080B582B000AF78607B681B4A934218D1DA
:102210004FF40060FEF7B8FB00BF4FF40060FEF71C
:10222000CFFB0346002BF8D14FF40060FEF73CFAD9
:1022300000BF4FF40060FEF753FA0346002BF8D1BD
:1022400017E07B680D4A934213D10D48FEF79CFBC3
:1022500000BF0B48FEF7B4FB0346002BF9D108483A
:10226000FEF722FA00BF0648FEF73AFA0346002BB3
:10227000F9D10837BD4680BD080003400800024878
:102280008000001080B485B000AF786039603B7882
:10229000C3F30203DBB21A467B88C3F309039BB284
:1022A0001B041343FB607B68FA68C3F8F021FB78DA
:1022B000C3F30013DBB21A07FB78C3F38103DBB26D
:1022C0009B061A43FB78C3F34013DBB25B0713434F
:1022D000FB60FB78C3F38013DBB29B07FA68134300
:1022E000FB607B68D3F8F021FB68134343F00042A6
:1022F0007B68C3F8F0211437BD465DF8047B704756
:1023000080B483B000AF78607B68D3F8843043F04A
:1023100080627B68C3F884200C37BD465DF8047B7F
:10232000704700BF80B483B000AF78607B68D3F89B
:10233000843023F080627B68C3F884200C37BD466C
:102340005DF8047B704700BF80B500AF0120FEF749
:102350001BFB0120FEF7A8F980BD00BF80B582B04D
:1023600000AF78603960FFF7EFFF3B685A697B6820
:102370001A603B685B6843F400427B68C3F88020C6
:102380003B689A687B68C3F8A0203B68DA687B6882
:10239000C3F8A4203B681A697B68C3F880223B68B5
:1023A0001A687B68C3F8B8200837BD4680BD00BFF7
:1023B00080B485B000AFF860B9603B601346FB7134
:1023C000FB79002B09D1BA6840F21F731340FA68F9
:1023D0003968283142F8213007E0BA68054B1340CC
:1023E000FA683968283142F821301437BD465DF863
:1023F000047B704700001F0780B485B000AF786091
:102400007B68D3F8803043F000427B68C3F88020BB
:102410000023FB7317E0FB7B0F4A52F82330BB60AD
:10242000BB68D3F8803003F44033002B08D000E0C1
:1024300000BFBB68D3F8803003F08053002BF7D186
:10244000FB7B0133FB73FB7B012BE4D91437BD46C7
:102450005DF8047B704700BF147B000880B485B032
:1024600000AF78600B46FB70FB78032B03D9FB7839
:10247000043BFB6001E0FB78FB607B68D3F84031F4
:1024800023F00F027B68C3F840217B68D3F840211A
:10249000FB681A437B68C3F840211437BD465DF8DA
:1024A000047B704780B582B000AF786039603B68CC
:1024B000786859680022002300F028F83B687868A3
:1024C00059680122002300F021F83B687868996878
:1024D0000022012300F01AF83B687868996801220D
:1024E000012300F013F83B681A697B68C3F8802069
:1024F0003B68DA687B68C3F8B8203B68786819687D
:10250000FFF7C0FE0837BD4680BD00BF80B48DB068
:1025100000AFF860B9603B601346FB71FB79002B9C
:1025200013D10823FB624FF4E0637B620023BB629C
:102530001F233B623B7AC3F30403DBB2FB617B7A6C
:10254000C3F30203DBB2FB7613E01823FB624FF008
:10255000E0637B621023BB624FF4F8133B62BB7AEB
:10256000C3F30403DBB2FB61FB7AC3F30203DBB208
:10257000FB76FB683A68283253F822307B617B6A2D
:10258000DB437A6913407B61FA7EFB6A02FA03F34C
:102590007A6913437B613B6ADB437A6913407B6151
:1025A000BB6AFA6902FA03F37A6913437B61FB6839
:1025B0003A682832796943F822103437BD465DF80D
:1025C000047B704780B485B000AF78600B46FB7029
:1025D0007B68D3F88030FB60FB6823F00303FB606B
:1025E000FB78FA681343FB607B68FA68C3F88020C5
:1025F0001437BD465DF8047B704700BF80B586B0D8
:1026000000AF786039600023FB7509E0FB7D394A33
:1026100052F823301846FFF785FEFB7D0133FB752A
:10262000FB7D012BF2D900233B613B681B7803F053
:102630000303DBB2002B02D04FF400633B610023A5
:10264000FB7521E0FB7D2B4A52F82330D3F8843010
:10265000FB60FB6823F44073FB603B681B78C3F3AB
:102660008103DBB21B02FA681343FB60FA683B6923
:102670001343FB60FB7D1F4A52F82330FA68C3F80E
:102680008420FB7D0133FB75FB7D012BDAD93B6890
:102690005B6843F4000343F400437A68C2F80032F5
:1026A0003B689B6843F001027B68C3F804223B68E7
:1026B0001B7803F00303DBB2022B07D17B68D3F84E
:1026C000043243F480327B68C3F804220023FB7594
:1026D00009E0FB7D074A52F823301846FFF710FE49
:1026E000FB7D0133FB75FB7D012BF2D91837BD460D
:1026F00080BD00BF147B000880B489B000AFF860D3
:10270000B9607A607B681B7BBB61FB68D3F888305B
:102710007B61BB68012202FA03F3DB437A69134051
:102720007B61BB68BA6902FA03F37A6913437B6180
:10273000FB687A69C3F888207B685B7B5BB2002BFF
:1027400029DB0023FB61BB68012B0AD10823FB6155
:10275000FB68D3F8B03023F4F852FB68C3F8B0201C
:102760000CE0BB68002B09D10023FB61FB68D3F8A8
:10277000B03023F01F02FB68C3F8B020FB68D3F829
:10278000B0307A68527B51B2FA6901FA02F21A4308
:10279000FB68C3F8B020FB68D3F8C8207B685B688F
:1027A0001A43FB68C3F8C820FB68D3F8D0207B68C5
:1027B0009B681A43FB68C3F8D0207B681968FB68E4
:1027C000BA68803243F822102437BD465DF8047B96
:1027D000704700BF80B584B000AF7860144B1B68B1
:1027E000002B02D1124B134A1A60114B1B68FB607D
:1027F0007B68033323F003037B600D4B1A687B680F
:1028000013440D4A934207D2094B1A687B6813445C
:10281000074A1360FB6806E003F036F802460C2313
:1028200013604FF0FF3318461037BD4680BD00BF20
:10283000ACCAFF1F00000020C05F002080B400AFC2
:10284000BD465DF8047B704780B483B000AF78600C
:102850007B684FF40042C3F818210C37BD465DF881
:10286000047B704780B483B000AF78607B68D3F896
:10287000143103F48053002B14BF01230023DBB277
:1028800018460C37BD465DF8047B704780B483B0B2
:1028900000AF78607B68D3F8143103F40063002B39
:1028A00014BF01230023DBB218460C37BD465DF888
:1028B000047B704780B584B000AF78600023FB7361
:1028C0007B685B685B6898470346FB73FB7B184635
:1028D0001037BD4680BD00BF80B586B000AFF86040
:1028E000B9607A600423FB75FB685B6893F821305C
:1028F000022B00D007E0F868B9687A6800F008F8A1
:102900000346FB7500BFFB7D18461837BD4680BDEA
:1029100080B586B000AFF860B9607A600323FB75BC
:10292000BB68002B58D07B68002B55D00223FB7569
:10293000FB689B681B7EDBB283F00103DBB2002BDC
:102940004AD0FB689B6801221A76FB685B6893F8A3
:102950002330002B04D0FB681B681846FFF774FF78
:1029600000233B611CE0FB685B6893F82330002B7D
:1029700008D000BFFB681B681846FFF773FF0346CB
:10298000002BF7D1FB681968BA683B6913441B78C0
:102990009BB208461946FFF759FA3B6901333B6180
:1029A0003A697B689A42DED3FB685B6893F8233010
:1029B000002B0BD000BFFB681B681846FFF766FFB3
:1029C000034683F00103DBB2002BF4D10023FB7537
:1029D000FB689B6800221A76FB7D18461837BD46B7
:1029E00080BD00BF80B483B000AF78600B46FB7041
:1029F0001346BB70F878FB787A6806339B00134463
:102A00005B6823F00702BB781A437968831D9B003B
:102A10000B445A600C37BD465DF8047B704700BF1D
:102A200080B582B000AF786039607868396801227B
:102A3000FFF7A2F90837BD4680BD00BF80B483B060
:102A400000AF78607B681B6C23F00F0343F0020239
:102A50007B681A640C37BD465DF8047B704700BF85
:102A600080B582B000AF0023FB7116480421164ADE
:102A7000FDF7AAFC15481649FFF7D2FF13480021BD
:102A80000122FFF7AFFF1148302104220123FFF795
:102A900049FB0E48202104220F23FFF76BFB0B4854
:102AA000FFF7CCFF074805210A4AFDF78DFC0748D0
:102AB00010210022FFF788FBFB7918460837BD4636
:102AC00080BD00BF00810248687B00080000034011
:102AD0001C7B0008287B000880B483B000AF7860BE
:102AE0000B46FB70FB7801229A407B68DA600C375A
:102AF000BD465DF8047B704780B483B000AF78605A
:102B00007B680122DA600C37BD465DF8047B7047B4
:102B100080B483B000AF78607B6802221A610C3702
:102B2000BD465DF8047B704780B483B000AF786029
:102B30000B467B807A887B685A630C37BD465DF80C
:102B4000047B704780B483B000AF78600B467B8015
:102B50007A887B68DA630C37BD465DF8047B704782
:102B600080B483B000AF786039607B683A681A61DE
:102B70000C37BD465DF8047B704700BF80B483B05E
:102B800000AF78600B46FB707B68D3F8A420FB781D
:102B9000012101FA03F31A437B68C3F8A4200C3720
:102BA000BD465DF8047B704780B584B000AF7860A7
:102BB0000023FB737B6893F8263083F00103DBB2BC
:102BC000002B09D07B6893F82130002B04D1786862
:102BD00000F008F80346FB73FB7B18461037BD4630
:102BE00080BD00BF80B584B000AF78607B681B6992
:102BF000184600F0E7FF0346FB737B681B699A6881
:102C00007B681B7E10461946FFF766FF7B685A6992
:102C10007B68DB6910461946FEF750FD786800F0C6
:102C20002DF87B6893F82530002B0FD07B685A690C
:102C30007B6893F82030104600211A46FEF774FD99
:102C40007B685B6918460021FFF798FF7B685B692A
:102C50001846FFF75DFF7B68012283F826207B681A
:102C600093F82430002B04D07B685B691846FFF78B
:102C700043FFFB7B18461037BD4680BD80B582B050
:102C800000AF78607B685A697B685B8C1046194698
:102C9000FFF74AFF7B685B6918460021FFF752FF88
:102CA0007B681B699A687B68DB6810461946FFF7EA
:102CB00057FF0837BD4680BD80B483B000AF786051
:102CC0000B46FB70FB7801229A407B68DA600C3778
:102CD000BD465DF8047B704780B483B000AF786078
:102CE0007B680122DA600C37BD465DF8047B7047D3
:102CF00080B483B000AF78600B467B807A887B68B5
:102D00005A630C37BD465DF8047B704780B483B0CE
:102D100000AF78600B467B807A887B68DA630C377B
:102D2000BD465DF8047B704780B483B000AF786027
:102D300039607B683A681A610C37BD465DF8047BE0
:102D4000704700BF80B483B000AF78600B46FB7063
:102D50007B68D3F8A420FB78012101FA03F31A431E
:102D60007B68C3F8A4200C37BD465DF8047B704730
:102D700080B584B000AF78600123FB737B6893F863
:102D80002930022B4DD17B681B68184600F01AFFD2
:102D90000346FB73FB7B002B3FD17B689A687B6803
:102DA000DB6810461946FEF789FC7B689A687B68E9
:102DB000DB699BB210461946FFF79AFF7B689A6859
:102DC0007B689B699BB210461946FFF79FFF7B68A3
:102DD0005A687B685B6A10461946FFF7A5FF78685A
:102DE00000F024F87B6819697B6893F82C207B68D5
:102DF0005B69084611461A46FDF7E6FA7B68002231
:102E000083F829207B6893F82F30002B02D0786854
:102E100000F0B8F80023FB7303E07B68022283F81C
:102E20002920FB7B18461037BD4680BD80B582B097
:102E300000AF78607B6893F83030002B0FD07B6850
:102E40009B6818460021FFF77DFF7B689A687B68C6
:102E500093F82A30104600211A46FEF765FC7B687D
:102E600093F83130002B0FD07B689B681846022105
:102E7000FFF768FF7B689A687B6893F82B301046F1
:102E800002211A46FEF750FC0837BD4680BD00BF40
:102E900080B582B000AF78607B6893F82930002B52
:102EA00004D07B6893F82930042B11D17B685A68D1
:102EB0007B6893F82E3010461946FFF7FDFE7B68BD
:102EC0009B681846FFF708FF7B68032283F82920D8
:102ED0000837BD4680BD00BF80B586B000AF7860C2
:102EE00039600123FB757B6893F82930022B2CD0C5
:102EF0003B6842F21072934227D87B68DB6901334A
:102F00003B613B68C3F51C5310333A6902FB03F382
:102F1000104AA2FB03235B0BFB607B68FA689A6193
:102F20007B683A681A627B689A68FB689BB21046B5
:102F30001946FFF7EBFE7B685A687B685B6A1046B0
:102F40001946FFF7F1FE0023FB75FB7D1846183785
:102F5000BD4680BD5917B7D180B584B000AF786049
:102F60000123FB737B6893F82830002B04D1786829
:102F7000FFF7FEFE0346FB73FB7B18461037BD468A
:102F800080BD00BF80B582B000AF78607B6893F8E9
:102F90002830002B02D17868FFF77AFF0837BD464A
:102FA00080BD00BF80B584B000AF78603960012378
:102FB000FB737B6893F82830002B05D1786839685B
:102FC000FFF78AFF0346FB73FB7B18461037BD46AD
:102FD00080BD00BF80B400AF044BDB6803F4E06346
:102FE0001B0A1846BD465DF8047B704700ED00E003
:102FF00080B483B000AF0346FB7197F90730002B14
:103000000BDB084997F907305B09FA7902F01F02D8
:10301000012000FA02F241F823200C37BD465DF88A
:10302000047B704700E100E080B483B000AF03464A
:10303000FB7197F90730002B0CDB094997F9073032
:103040005B09FA7902F01F02012000FA02F26033F4
:1030500041F823200C37BD465DF8047B704700BF64
:1030600000E100E080B483B000AF03463960FB713B
:1030700097F90730002B0ADB0D4997F907303A68BA
:10308000D2B29200D2B20B4483F800230AE009497D
:10309000FB7903F00F03043B3A68D2B29200D2B23C
:1030A0000B441A760C37BD465DF8047B704700BFB1
:1030B00000E100E000ED00E080B489B000AFF8600E
:1030C000B9607A60FB6803F00703FB61FB69C3F139
:1030D0000703062B28BF0623BB61FB690633062BBB
:1030E00002D9FB69013B00E000237B61BB6901223F
:1030F00002FA03F35A1EBB681A407B699A407B6947
:10310000012101FA03F3591E7B680B401343184653
:103110002437BD465DF8047B704700BF90B583B08F
:1031200000AF78607B6859687B6893F821207B68E2
:103130000833084611461A46FDF746F97B681968B8
:103140007B68DA7F7B681433084611461A46FEF71F
:103150004FFB7B681A687B6893F82030104619464D
:103160000122FEF789FB7B681C7FFFF733FF0146D6
:103170007B685B7F1A467B689B7F084611461A4630
:10318000FFF79AFF024663B218461146FFF76AFF3F
:103190007B6893F82230002B0BD07B681B7F5BB2DF
:1031A0001846FFF741FF7B681B7F5BB21846FFF7AD
:1031B0001FFF002318460C37BD4690BD80B582B076
:1031C00000AF78600B46FB707B6819687B68DA7F1C
:1031D000FB78084611461A46FEF730FB0837BD4615
:1031E00080BD00BF80B400AF044BDB6803F4E06334
:1031F0001B0A1846BD465DF8047B704700ED00E0F1
:1032000080B483B000AF0346FB7197F90730002B01
:103210000BDB084997F907305B09FA7902F01F02C6
:10322000012000FA02F241F823200C37BD465DF878
:10323000047B704700E100E080B483B000AF034638
:103240003960FB7197F90730002B0ADB0D4997F9BC
:1032500007303A68D2B29200D2B20B4483F800230E
:103260000AE00949FB7903F00F03043B3A68D2B244
:103270009200D2B20B441A760C37BD465DF8047B3F
:10328000704700BF00E100E000ED00E080B489B0CD
:1032900000AFF860B9607A60FB6803F00703FB6178
:1032A000FB69C3F10703062B28BF0623BB61FB693B
:1032B0000633062B02D9FB69013B00E000237B614A
:1032C000BB69012202FA03F35A1EBB681A407B69EC
:1032D0009A407B69012101FA03F3591E7B680B4078
:1032E000134318462437BD465DF8047B704700BF82
:1032F00080B582B000AF78607B681B785BB21846FF
:10330000FFF77EFF0837BD4680BD00BF90B583B094
:1033100000AF78607B681C78FFF764FF01467B682C
:103320005B781A467B689B78084611461A46FFF779
:10333000ADFF024663B218461146FFF77DFF7B687A
:10334000DB78002B02D07868FFF7D2FF0023184605
:103350000C37BD4690BD00BF80B483B000AF78602D
:103360007B68D3F8143103F48053002B14BF01237E
:103370000023DBB218460C37BD465DF8047B70476E
:1033800080B483B000AF78607B68D3F8143103F465
:103390000063002B14BF01230023DBB218460C3757
:1033A000BD465DF8047B704780B483B000AF7860A1
:1033B0007B68D3F8143103F00803002B14BF0123FA
:1033C0000023DBB218460C37BD465DF8047B70471E
:1033D00080B483B000AF78607B689B6C18460C3774
:1033E000BD465DF8047B704780B483B000AF786061
:1033F00039607B68DA6C3B681A437B68DA640C37A7
:10340000BD465DF8047B704780B582B000AF786040
:103410007B681B681846FFF79FFF0346184608376E
:10342000BD4680BD80B582B000AF78607B681B6808
:103430001846FFF7B9FF034618460837BD4680BD5A
:1034400080B582B000AF78607B681B681846FEF7D5
:103450005BFC034618460837BD4680BD80B582B088
:1034600000AF78600B46FB707B681A68FB781046EB
:103470001946FEF7D7FB0837BD4680BD80B582B040
:1034800000AF78607B681B681846FEF7F1FB0837D1
:10349000BD4680BD80B582B000AF78607B681B6898
:1034A0001846FEF70BFC0837BD4680BD80B582B0DC
:1034B00000AF78607B681B6818461021FFF794FF07
:1034C0007B681B681846FEF787FB0837BD4680BD42
:1034D00080B584B000AFF860B9601346FB71FB683B
:1034E0001B6818460421FFF77FFFFB681968BB685B
:1034F0009AB2FB79084611461A46FEF705FB1037CB
:10350000BD4680BD80B584B000AFF860B960134699
:10351000FB71FB681B6818460821FFF765FFFB6815
:103520001968BB689AB2FB79084611461A46FEF73D
:103530001FFB1037BD4680BD80B584B000AF7860FA
:103540007B68002B06D07B685B685B68984700232C
:10355000FB7301E00123FB73FB7B18461037BD466C
:1035600080BD00BF80B584B000AF786039607B68F3
:103570001B681846FFF72CFFF860FA683B68134099
:1035800018461037BD4680BD80B582B000AF786068
:1035900039607B681B6818463968FFF725FF0837D4
:1035A000BD4680BD80B588B002AFF8607A603B60F0
:1035B0000B46FB720223FB75FB685B6893F82430B3
:1035C000002B13D0FB685B6893F82430012B0DD0DF
:1035D000FA7A3B6A009397F824300193F868114611
:1035E0007A683B6800F08CF80346FB75FB7D184653
:1035F0001837BD4680BD00BF80B58AB004AFF86003
:103600007A603B600B46FB720223FB75FB685B68CC
:1036100093F82530002B16D0FB685B6893F82530B3
:10362000012B10D0FA7A3B6A009397F8243001936B
:1036300097F828300293F86811467A683B6800F0E2
:1036400029F90346FB75FB7D18461837BD4680BD3A
:1036500080B584B000AFF860B9601346FB71FB68B9
:103660001B6818460C21FFF7BFFEFB689B6893F8A8
:103670002830DBB2002B09D0BB689BB21A46FB791D
:10368000F86811461A46FFF73DFF0DE0FB689B689E
:10369000012283F82820BB689BB21A46FB79F868A0
:1036A00011461A46FFF714FF1037BD4680BD00BF14
:1036B00080B485B000AF78600023FB737B685B68E3
:1036C00093F82430002B07D07B685B6893F8243094
:1036D000012B01D00123FB737B681B687A68126899
:1036E000D26C42F00202DA647B681B6802229A669E
:1036F000FB7B18461437BD465DF8047B704700BF5E
:1037000080B586B000AFF8607A603B600B46FB7214
:103710000223FB7400237B61FB7A83F00103DBB29D
:10372000002B09D0FB689B6893F82830DBB283F04C
:103730000103DBB2002B05D13B68002B02D03B6AB2
:10374000002B02D10123FB749EE0FB7A002B2CD0CE
:10375000FB689B6893F82830DBB283F00103DBB28F
:10376000002B22D0F86879680022FFF771FF00BFB4
:10377000F8684FF40871FFF7F5FE0346002BF7D009
:10378000F8682021FFF7EEFE0346002B08D0F8680A
:103790002021FFF7F9FEF868FFF78AFF012374E0A4
:1037A000F8684FF40071FFF7EFFEFB685B6893F871
:1037B0002630002B2ED128E03A687B6913441B7811
:1037C000F8681946FFF74AFE00BFF8684FF4087121
:1037D000FFF7C8FE0346002BF7D0F8682021FFF75B
:1037E000C1FE0346002B08D0F8682021FFF7CCFE6D
:1037F000F868FFF75DFF012347E0F8684FF40071B8
:10380000FFF7C2FE7B6901337B617A693B6A9A42AA
:10381000D2D32BE01AE010E07A693B6A9A420BD2CD
:103820003A687B6913441B78F8681946FFF716FE5F
:103830007B6901337B6100E008E0F868FFF7E4FD95
:10384000034683F00103DBB2002BE5D17A693B6AC2
:103850009A42E0D300BFFB681B681846FFF790FD53
:10386000034683F00103DBB2002BF4D197F8243038
:10387000002B07D0FB689B68002283F82820F8689B
:10388000FFF714FE0023FB74FB7C18461837BD4677
:1038900080BD00BF90B589B000AFF8607A603B6032
:1038A0000B46FB720223FB77FB7A83F00103DBB24A
:1038B000002B09D0FB689B6893F82830DBB283F0BB
:1038C0000103DBB2002B05D13B68002B02D03B6B20
:1038D000002B02D10123FB77B8E00023BB6100235A
:1038E0007B61FB7A002B22D0F86879680122FFF710
:1038F000AFFE00BFF8684FF40871FFF733FE0346D0
:10390000002BF7D0F8682021FFF72CFE0346002B90
:1039100008D0F8682021FFF737FEF868FFF7C8FEE7
:10392000012394E0F8684FF40071FFF72DFEFB6867
:103930005B6893F82630002B3AD134E0BB695A1CFF
:103940003B6B9A4207D197F83830002B03D0F868C8
:10395000FFF7A0FD02E0F868FFF790FD00BFF868F0
:103960004FF40041FFF7FEFD0346002B07D1F86836
:103970004FF48041FFF7F6FD0346002BEFD0F868C7
:103980004FF40041FFF700FEF8684FF48041FFF765
:10399000FBFDBB695A1CBA613A68D418F868FFF796
:1039A0004FFD03462370BA693B6B9A42C6D33FE092
:1039B000BB697B6138E018E07A693B6B9A4213D2AD
:1039C0007B695A1C3B6B9A4207D197F83830002B21
:1039D00003D0F868FFF75EFD02E0F868FFF74EFDE0
:1039E0007B6901337B6100E008E0F868FFF70CFDBC
:1039F000034683F00103DBB2002BDDD110E000BFF2
:103A0000F868FFF70FFD0346002BF9D1BB695A1C7C
:103A1000BA613A68D418F868FFF712FD03462370BC
:103A2000BA697B699A42EAD37A693B6B9A42C2D3FC
:103A300097F83430002B07D0FB689B68002283F88E
:103A40002820F868FFF732FD0023FB77FB7F18463C
:103A50002437BD4690BD00BF80B483B000AF78600E
:103A60000B46FB701346BB70F878FB787A68063318
:103A70009B0013445B6823F00702BB781A43796804
:103A8000831D9B000B445A600C37BD465DF8047BD8
:103A9000704700BF80B483B000AF78600B46FB7006
:103AA0007B681B6C23F00F02FB781A437B681A6457
:103AB0000C37BD465DF8047B704700BF80B582B00F
:103AC00000AF78603960786839680122FDF774FFCB
:103AD0000837BD4680BD00BF80B582B000AF7860BA
:103AE00078680421FFF7D6FF0837BD4680BD00BFC8
:103AF00080B500AF054805210022FDF7DBFE044834
:103B000000210022FDF7D6FE80BD00BF00820248E2
:103B10000083024880B500AFD023064805211A462D
:103B2000FDF7C8FED023044800211A46FDF7C2FE67
:103B300080BD00BF008202480083024880B500AF0C
:103B400013481449FFF7BAFF114800210122FFF77B
:103B500083FF0F4801210122FFF77EFF0C4810214F
:103B600004220123FEF7DEFA0948002104220F2374
:103B7000FEF700FB0648FFF7AFFF07480521074A9D
:103B8000FCF722FC06480021064AFCF71DFC80BD1C
:103B900000020340D07B000800820248B87B000886
:103BA00000830248C47B000880B483B000AF786013
:103BB0007B684FF48072DA600C37BD465DF8047B99
:103BC000704700BF80B582B000AF78607B685B7BD8
:103BD00083F00103DBB2002B0FD07B689A687B680F
:103BE0001B7B10461946FDF74BFD7B689B6818460A
:103BF000FFF7DAFF7B6801225A7300231846083763
:103C0000BD4680BD80B584B000AF78600023FB73F3
:103C10007B685B7A83F00103DBB2002B0DD07B68FD
:103C20005A687B681B68104601211A46FDF7A8FAFE
:103C30007B6801225A720023FB73FB7B1846103706
:103C4000BD4680BD80B483B000AF786039607B68CA
:103C5000D3F880203B681033194601238B401A4368
:103C60007B68C3F880200C37BD465DF8047B704745
:103C700080B584B000AF78607B681B7C022B49D193
:103C80007B68DA687B689B6810461946FEF766FB1E
:103C90000023FB602FE07B68FA6853F82230196834
:103CA0007B68FA6853F822305B6808461946FEF7CD
:103CB000F9FB7B68FA6853F822301B681846032129
:103CC000FEF780FC7B68FA6853F822301B7A83F099
:103CD0000103DBB2002B05D07B68DB681846F9686E
:103CE000FFF7B0FF7B68FA6853F8223000225A725F
:103CF000FB680133FB60FB68012BCCD97B685B7CE4
:103D0000002B04D07B68DB681846FEF775FB7B68E8
:103D100000221A747B681B7C18461037BD4680BD94
:103D200080B582B000AF78607B6819687B681A7CC8
:103D30007B680433084611461A46FCF745FB7B684E
:103D400019687B681A7C7B685B7C084611461A46BA
:103D5000FDF7F0FD002318460837BD4680BD00BFC3
:103D600080B485B000AF78607B6803F00703FB6028
:103D70000C4BDB68BB60BA684FF6FF031340BB60B7
:103D8000FB681A02BB68134343F0BF6343F400337C
:103D9000BB60044ABB68D3601437BD465DF8047B42
:103DA000704700BF00ED00E080B582B000AF012099
:103DB000FFF7D6FF72B6214B214A9A60BFF34F8FAF
:103DC00062B61E4A1D4BD3F8883043F47003C2F824
:103DD00088301C4B03F5805314331B687B607B6871
:103DE00023F00F037B607B6843F002037B60154B7D
:103DF00003F5805314337A681A60104A0F4B5B69DD
:103E000023F0100353610D4A0C4B5B6923F0080348
:103E100053610A4A094B5B6A23F480335362074AB1
:103E2000064B5B6A23F400335362044A034B5B6A1C
:103E300023F4802353620837BD4680BD00ED00E0C7
:103E4000000000080010005880B485B000AF786012
:103E50000023FB737B6801221A70FB7B1846143722
:103E6000BD465DF8047B704780B400AF024B184636
:103E7000BD465DF8047B7047001BB700B0B586B047
:103E800000AF114B3C1D1D460FCD0FC42B682360A6
:103E90003B1D1846FCF78CFB0020FCF7B1FC002012
:103EA000FCF766FC0420FCF737FDFCF7ADFD0120B4
:103EB0002021FCF7B9FD0020FCF76EFC0120FCF787
:103EC0003FFD1837BD46B0BD587C000880B485B0B2
:103ED00000AFF8600B467A60FB72FB689A68FB7A69
:103EE000072101FA03F3DB431A40FB7A796801FAF0
:103EF00003F31A43FB689A601437BD465DF8047BF0
:103F0000704700BF80B483B000AF78600B46FB7091
:103F10007B68DB6823F00702FB7803F007031A4392
:103F20007B68DA600C37BD465DF8047B704700BFE4
:103F300080B483B000AF78607B68DB6843F4807244
:103F40007B68DA600C37BD465DF8047B704700BFC4
:103F500080B483B000AF78607B681B6843F0400298
:103F60007B681A600C37BD465DF8047B704700BF64
:103F700080B483B000AF78607B681B6823F0400298
:103F80007B681A600C37BD465DF8047B704700BF44
:103F900080B483B000AF78607B681B6843F0010297
:103FA0007B681A600C37BD465DF8047B704700BF24
:103FB00080B483B000AF78607B681B6823F0010297
:103FC0007B681A600C37BD465DF8047B704700BF04
:103FD00080B483B000AF78607B681B6823F08002F8
:103FE0007B681A600C37BD465DF8047B704700BFE4
:103FF00080B485B000AFF8600B467A60FB72FB6856
:104000001B68FA6812689168FA7A072000FA02F2CF
:10401000D2431140FA7A786800FA02F20A439A60B1
:104020001437BD465DF8047B704700BF80B483B091
:1040300000AF78607B681B68DB6918460C37BD46AB
:104040005DF8047B704700BF80B483B000AF786038
:1040500039607B681B687A68126811683A680A439D
:104060001A600C37BD465DF8047B704780B582B09E
:1040700000AF78607B681B6818464FF40031FFF78B
:10408000E3FF0837BD4680BD80B582B000AF7860E1
:104090007B681B6818464FF48031FFF7D5FF08375F
:1040A000BD4680BD80B584B000AF78600023FB6062
:1040B000786800F031F87B6893F8A430002B03D0C7
:1040C000FB6843F00203FB607B6893F8A330002B8E
:1040D00003D0FB6843F00403FB607B6893F8A530D2
:1040E000002B03D0FB6843F00803FB607B685B6830
:1040F0001846F968FDF756FA7B6893F8A630002B4E
:1041000006D07B685B6818464FF48001FDF74AFAD9
:104110001037BD4680BD00BF80B582B000AF78606B
:104120007B685A687B68D3F88C301B781046002176
:104130001A46FFF7CBFE7B685A687B68D3F88C3051
:104140005B78104604211A46FFF7C0FE7B685A6868
:104150007B68D3F88C309B78104608211A46FFF70D
:10416000B5FE7B685A687B68D3F88C30DB781046E4
:104170000C211A46FFF7AAFE0837BD4680BD00BFD6
:1041800080B582B000AF78607B681B681846FDF789
:1041900037F87B68DB79002B0BD07B681A687B686B
:1041A0005B79104604211A46FFF722FF7868FFF773
:1041B0005DFF7B681B7A002B0BD07B681A687B68DD
:1041C0009B79104600211A46FFF712FF7868FFF727
:1041D0005BFF0837BD4680BD80B584B000AF786016
:1041E0000023FB737B681B681846FDF7DDF8034668
:1041F000FB73FB7B18461037BD4680BD80B584B08D
:1042000000AF78600023FB737B681B681846FDF7DE
:10421000F9F80346FB73FB7B18461037BD4680BD9B
:1042200080B584B000AF78607B681B681846FFF7E4
:10423000FDFEF860FB6818461037BD4680BD00BF24
:1042400080B586B000AF78600023FB757B68D3F83B
:104250009030FB607B681B681846FFF7D3FC034671
:10426000FB75FB7D002B40F087807B685A687B687C
:104270009B6810461946FCF787FE0346002B78D151
:104280007B685B681846FFF763FE7B685B681846CF
:10429000FFF77EFE7B685B681846FFF799FE7B6838
:1042A00093F8A730002B05D07B685B681846FFF7B2
:1042B0003FFE18E07B68D3F8983019687B68D3F824
:1042C00098301A797B68D3F89C30084611461A4614
:1042D000FCF77AF87B685A687B6893F8A030104640
:1042E0001946FFF70FFE7868FFF7DCFE00233B61FD
:1042F00019E07A683B6902339B0013445B68BB603A
:104300007B681B6859687B6893F8A120BB681B79A0
:10431000084611461A46FCF7DFFEB868FFF730FF83
:104320003B6901333B617B6893F8A2301A463B69D5
:104330009A42DED87B685B681846FFF719FE7B68F7
:104340005B681846FFF734FE7B6893F8A73083F06C
:104350000103DBB2002B11D0FB681968FB681A79E6
:104360007B68D3F89430084611461A46FCF72CF8BF
:1043700004E00123FB7501E00123FB75FB7D18467A
:104380001837BD4680BD00BF80B582B000AF7860F1
:104390007B685B681B78002B0AD17B681B68002B4D
:1043A00002D07B681B6898477B685B6801221A70A3
:1043B000002318460837BD4680BD00BF80B400AF5B
:1043C000044BDB6803F4E0631B0A1846BD465DF846
:1043D000047B704700ED00E080B483B000AF03467B
:1043E000FB7197F90730002B0BDB084997F9073071
:1043F0005B09FA7902F01F02012000FA02F241F88B
:1044000023200C37BD465DF8047B704700E100E0D7
:1044100080B483B000AF03463960FB7197F9073071
:10442000002B0ADB0D4997F907303A68D2B29200A7
:10443000D2B20B4483F800230AE00949FB7903F068
:104440000F03043B3A68D2B29200D2B20B441A7600
:104450000C37BD465DF8047B704700BF00E100E00B
:1044600000ED00E080B489B000AFF860B9607A6018
:10447000FB6803F00703FB61FB69C3F10703062B2D
:1044800028BF0623BB61FB690633062B02D9FB69F3
:10449000013B00E000237B61BB69012202FA03F3C8
:1044A0005A1EBB681A407B699A407B69012101FA58
:1044B00003F3591E7B680B40134318462437BD464F
:1044C0005DF8047B704700BF80B483B000AF7860B4
:1044D0007B68D3F8043243F400727B68C3F804228B
:1044E0000C37BD465DF8047B704700BF80B485B0D3
:1044F00000AFF860B9607A60FB68BA68603253F860
:1045000022207B68012101FA03F342EA0301FB68E0
:10451000BA68603243F822101437BD465DF8047B58
:10452000704700BF80B485B000AFF860B9607A60B2
:104530007B681968FB68BA68A03243F82210143708
:10454000BD465DF8047B704780B483B000AF7860EF
:1045500039607B683A68C03253F822309BB2184603
:104560000C37BD465DF8047B704700BF90B585B041
:1045700000AF78607B681B7E022B40F0A7807B68D1
:10458000DB681846FFF774FB0346BB737B68DB6888
:10459000DA687B689B681046196800220023FDF7E3
:1045A00007FF7B68DB68DA687B685B681046194642
:1045B000FEF724F80023FB733CE07B681B68FA7B62
:1045C00053F82230BB60BB689A68BB685B7C1946B5
:1045D000BB681B6810461A46FEF78EF8BB689A68DF
:1045E000BB681B689B78C3F30303DBB21946BB6847
:1045F0005B6810461A46FFF795FF7B68DB68DA6850
:10460000BB681B7C1946BB685B7C10461A46FFF7EB
:104610006DFFBB68DB68002B09D0BB68DB68184600
:10462000FFF7B2FE03461A46BB7B1343BB73FB7B0B
:104630000133FB73FB7B012BBFD97B685B681B7A63
:1046400003F00803DBB2002B2CD07B681B69002B26
:1046500028D07B681B691B68DCB2FFF7AFFE014600
:104660007B681B695A687B681B699B680846114612
:104670001A46FFF7F7FE024663B218461146FFF7E7
:10468000C7FE7B68DB68DA687B685B7E104619468C
:10469000FDF7E4FE7B681B691B68DBB25BB2184662
:1046A000FFF79AFE7B685B69002B02D07B685B6931
:1046B00098477B689B7E002B05D07B68DB68DB68B6
:1046C0001846FFF701FF7B68BA7B1A767B681B7E72
:1046D00018461437BD4690BD80B584B000AF7860F1
:1046E0007B689A687B681B689B78C3F30303DBB223
:1046F00010461946FFF728FF0346FB81FB89184641
:104700001037BD4680BD00BF80B582B000AF00232A
:10471000FB713148FFF798FB0346FB71FB79002BD7
:1047200004D12E48FEF740FA0346FB71FB79002BBB
:1047300004D12B48FEF7EAFD0346FB71FB79002B01
:1047400004D12848FEF7EAFC0346FB71FB79002BF5
:1047500004D12548FFF7E4FA0346FB71FB79002BEF
:1047600004D12248FFF702FF0346FB71FB79002BBF
:1047700004D11F48FEF7F0FB0346FB71FB79002BC9
:1047800004D11C48FEF7D8FE0346FB71FB79002BD1
:1047900004D11948FEF78EF80346FB71FB79002B14
:1047A00004D11648FFF74CFD0346FB71FB79002B43
:1047B00004D11348FEF7AAFD0346FB71FB79002BD9
:1047C00004D11048FEF7A2FD0346FB71FB791846A1
:1047D0000837BD4680BD00BFF8CAFF1F14C8FF1FC1
:1047E000AC7B0008887B0008447C000868C9FF1F78
:1047F0003CC8FF1F70C8FF1F00C8FF1FBC7C00081B
:10480000B07B0008B47B000880B483B000AF786050
:1048100039607B681B683A68DA610C37BD465DF821
:10482000047B704780B586B000AF234B7B617B690A
:10483000DB681B683B617B69DB681846FFF7F0FCAF
:104840000346FB73FB7B03F00103002B30D0386978
:104850000121FFF7D9FF7B69DB681846FFF7CEFC23
:104860000346BB73BB7B002B22D100237B6000235C
:10487000BB603B6910333A1D10461946042201F013
:104880002FF83B6903F114023B1D0433184611460F
:10489000042201F025F83B695B68C3F31C0399B25D
:1048A0003B691B7B3A1D084611461A4600F006F884
:1048B0001837BD4680BD00BFBC7C000880B586B0FF
:1048C00000AF03463960FB8013467B71354B7B613B
:1048D0007B691B691B683B613B6901221A763A6957
:1048E000D3796FF34513D3713B697A791A73FA88D8
:1048F00022F0604239694B6862F31C034B603B68ED
:104900001B781A463B6801331B781B021A443B682C
:1049100002331B781B041A443B6803331B781B06C5
:1049200013441A463B691A613B6804331B781A46E4
:104930003B6805331B781B021A443B6806331B781F
:104940001B041A443B6807331B781B0613441A46A2
:104950003B695A617B691B691846FFF711FC7B694B
:104960001B691B683B617B691B691846FFF734FCB8
:104970000346FB73FB7B002B0FD17B691B69184639
:10498000FFF74EFC0346BB73BB7B03F00203002B17
:1049900003D038690221FFF737FF00BF1837BD4643
:1049A00080BD00BFBC7C000880B483B000AF7860DD
:1049B0007B681B68B3F57A7F08D17B689B880133DD
:1049C0009AB27B689A807B6800221A607B689B8819
:1049D0003C2B08D17B68DB8801339AB27B68DA8094
:1049E0007B6800229A807B68DB883C2B08D17B683F
:1049F0001B8901339AB27B681A817B680022DA80B6
:104A00007B681B89182B08D17B689B7A0133DAB24B
:104A10007B689A727B6800221A810C37BD465DF86C
:104A2000047B704780B483B000AF78607B689B687C
:104A300093F82630DBB218460C37BD465DF8047B90
:104A4000704700BF80B483B000AF78607B689B681C
:104A500093F82730DBB218460C37BD465DF8047B6F
:104A6000704700BF90B585B002AF0D4A3B1D11885D
:104A7000927819809A703C1D0323009301230193BF
:104A80000848012170222346FEF78CFD00BF05482F
:104A9000FFF7C8FF0346002BF9D10C37BD4690BD88
:104AA000947D000870C8FF1F90B58BB004AF78608C
:104AB0003960FFF7D7FF0023BB600023BB8107F1FC
:104AC00008040623009301230193012302932C4839
:104AD000012170222346FEF78FFD00BF2848FFF713
:104AE000B1FF0346002BF9D1FB7A03F00F031A0440
:104AF0003B7B1B0213447A7B134407EE903AF8EE9B
:104B0000E77AC7ED057AD7ED057A9FED1E7AC7EEF5
:104B1000877A9FED1D7A67EE877A9FED1C7A77EE94
:104B2000C77A7B68C3ED007A7B7A1A03BB7A1B01D4
:104B30001343FA7A1209D2B213433B61386900F089
:104B4000CBFB02460B46104619464FF00002104BB5
:104B500000F062FD02460B46104619464FF0000277
:104B60000C4B00F02FFC02460B461046194600F095
:104B70003BFE02463B681A601C37BD4690BD00BF35
:104B800070C8FF1F000080490000484300004842F1
:104B9000000030410000594080B483B000AF78601D
:104BA0000B46FB70FB784FF001129A407B685A600D
:104BB0000C37BD465DF8047B704700BF80B582B0FE
:104BC00000AF78607B681A687B681B7C10461946CA
:104BD000FFF7E2FF0837BD4680BD00BF80B500AFDC
:104BE000044B1B680133034A13600248FFF7DCFEE5
:104BF00080BD00BF08CBFF1F80B500AF0148FFF7A5
:104C0000DDFF80BD447C000880B483B000AF034664
:104C1000FB7197F90730002B0BDB084997F9073038
:104C20005B09FA7902F01F02012000FA02F241F852
:104C300023200C37BD465DF8047B704700E100E09F
:104C400080B483B000AF0346FB7197F90730002BA7
:104C500010DB0B4997F907305B09FA7902F01F0264
:104C6000012000FA02F2203341F82320BFF34F8FD6
:104C7000BFF36F8F0C37BD465DF8047B704700BFF4
:104C800000E100E080B483B000AF78600B46FB70B9
:104C9000FB784FF001129A407B685A600C37BD4692
:104CA0005DF8047B704700BF80B582B000AF7860CC
:104CB0007B681B7F5BB21846FFF7A6FF0837BD462F
:104CC00080BD00BF80B582B000AF78607B681B7F7D
:104CD0005BB21846FFF7B4FF0837BD4680BD00BF82
:104CE00080B582B000AF78607B681A687B681B7CF7
:104CF00010461946FFF7C6FF0837BD4680BD00BF06
:104D000080B483B000AF78607B68D3F8143103F0CF
:104D10000803002B14BF01230023DBB218460C3715
:104D2000BD465DF8047B704780B582B000AF786007
:104D30007B681B681846FDF7AFF80346DBB21846E0
:104D40000837BD4680BD00BF80B582B000AF786037
:104D50007B681B681846FFF7D3FF034618460837E1
:104D6000BD4680BDB0B592B000AFFFF7CDFC0346A5
:104D700087F84630002387F8473097F84630002BF5
:104D800000D0FEE7994B1A68994BA3FB02135B090D
:104D9000642101FB03F3D31A5A2B0ED997F847303D
:104DA00083F00103DBB2002B07D092489249FFF752
:104DB0007BFE012387F8473002E0002387F8473065
:104DC0008E48FFF7C1FF034683F00103DBB2002BDF
:104DD00000F0B0808948FFF7A7FF03461A46884BCA
:104DE0001A70874B1B78013B062B00F2998001A2B9
:104DF00052F823F0114E00082B4E0008454E0008D3
:104E00005F4E0008794E0008934E0008DD4E000802
:104E10007C4801F02BFA034678487A491A46FDF798
:104E20005BFD794B00221A7084E0784801F01EFA8D
:104E30000346724875491A46FDF74EFD724B012232
:104E40001A7077E0724801F011FA03466B48704916
:104E50001A46FDF741FD6C4B02221A706AE06D485C
:104E600001F004FA034665486A491A46FDF734FD25
:104E7000694B01221A705DE0684801F0F7F90346BA
:104E80005E4866491A46FDF727FD634B00221A70FB
:104E900050E0634801F0EAF90346584860491A4671
:104EA000FDF71AFD534B1B68184600F037FA04460D
:104EB0000D4607F1200318465A4922462B4601F0B9
:104EC000B1F907F12003184601F0D0F9024607F1C5
:104ED00020034A481946FDF7FFFC2BE0524801F039
:104EE000C5F90346454850491A46FDF7F5FC424BC3
:104EF0001B68184600F012FA04460D463B46184659
:104F00004A4922462B4601F08DF93B46184601F0EE
:104F1000ADF902463B4639481946FDF7DDFC09E08C
:104F2000434801F0A3F90346344841491A46FDF7C6
:104F3000D3FC00BF3F48FFF7CFFB03461A463E4B6A
:104F40001A803E48FFF7C8FB03461A463C4B1A80BE
:104F5000314B1B78002B04D1374B1A88394B1A8000
:104F600007E02D4B1B78012B03D1354B1A88354BAD
:104F70001A80344B1B881A4641F6641303FB02F374
:104F8000002B01DA03F6FF731B1303F2DC533B64BF
:104F90002D48396CFEF706F81B4B1B78012B13D0FC
:104FA000022B19D0002B00D01EE02848FFF78AFE04
:104FB0000E4B9B8803F001039BB2002B03D12448C6
:104FC000FFF78EFE10E00FE02048FFF76DFE1F4850
:104FD0000121FEF7F3F807E01C48FFF765FE1B48C8
:104FE0000221FEF7EBF800BFCCE600BF08CBFF1FA5
:104FF0001F85EB5124CBFF1F28CBFF1F00C8FF1FCD
:1050000030CBFF1F84C9FF1F14CBFF1F98C9FF1FA0
:10501000ACC9FF1FC0C9FF1F15CBFF1FD4C9FF1F9D
:10502000E0C9FF1F987D0008F0C9FF1FA47D00089C
:10503000FCC9FF1F28C9FF1F20CBFF1F4CC9FF1F42
:105040002ECBFF1F2CCBFF1F3CC8FF1F887B000807
:10505000447C000881F0004102E000BF83F000437F
:1050600030B54FEA41044FEA430594EA050F08BF03
:1050700090EA020F1FBF54EA000C55EA020C7FEAC7
:10508000645C7FEA655C00F0E2804FEA5454D4EB44
:105090005555B8BF6D420CDD2C4480EA020281EA0E
:1050A000030382EA000083EA010180EA020281EA46
:1050B0000303362D88BF30BD11F0004F4FEA013198
:1050C0004FF4801C4CEA113102D0404261EB4101A7
:1050D00013F0004F4FEA03334CEA133302D052422D
:1050E00063EB430394EA050F00F0A780A4F10104E9
:1050F000D5F1200E0DDB02FA0EFC22FA05F2801823
:1051000041F1000103FA0EF2801843FA05F3594108
:105110000EE0A5F120050EF1200E012A03FA0EFC87
:1051200028BF4CF0020C43FA05F3C01851EBE371B1
:1051300001F0004507D54FF0000EDCF1000C7EEBCE
:1051400000006EEB0101B1F5801F1BD3B1F5001F0C
:105150000CD349085FEA30004FEA3C0C04F101042B
:105160004FEA445212F5800F80F09A80BCF1004F54
:1051700008BF5FEA500C50F1000041EB045141EAD6
:10518000050130BD5FEA4C0C404141EB010111F4D7
:10519000801FA4F10104E9D191F0000F04BF014682
:1051A0000020B1FA81F308BF2033A3F10B03B3F160
:1051B00020020CDA0C3208DD02F1140CC2F10C02F0
:1051C00001FA0CF021FA02F10CE002F11402D8BF4E
:1051D000C2F1200C01FA02F120FA0CFCDCBF41EA1A
:1051E0000C019040E41AA2BF01EB0451294330BDE9
:1051F0006FEA04041F3C1CDA0C340EDC04F11404C6
:10520000C4F1200220FA04F001FA02F340EA03009C
:1052100021FA04F345EA030130BDC4F10C04C4F1E2
:10522000200220FA02F001FA04F340EA03002946C2
:1052300030BD21FA04F0294630BD94F0000F83F40C
:10524000801306BF81F480110134013D4EE77FEAEF
:10525000645C18BF7FEA655C29D094EA050F08BF3B
:1052600090EA020F05D054EA000C04BF194610461C
:1052700030BD91EA030F1EBF0021002030BD5FEA60
:10528000545C05D14000494128BF41F0004130BD88
:1052900014F580043CBF01F5801130BD01F00045DC
:1052A00045F0FE4141F470014FF0000030BD7FEA4F
:1052B000645C1ABF194610467FEA655C1CBF0B464A
:1052C000024650EA013406BF52EA033591EA030F61
:1052D00041F4002130BD00BF90F0000F04BF002159
:1052E000704730B54FF4806404F132044FF000058C
:1052F0004FF0000150E700BF90F0000F04BF002105
:10530000704730B54FF4806404F1320410F000456A
:1053100048BF40424FF000013EE700BF42004FEA65
:10532000E2014FEA31014FEA02701FBF12F07F43E2
:1053300093F07F4F81F06051704792F0000F14BFDF
:1053400093F07F4F704730B54FF4607401F0004523
:1053500021F0004120E700BF50EA010208BF70477A
:1053600030B54FF000050AE050EA010208BF70476F
:1053700030B511F0004502D5404261EB41014FF4D8
:10538000806404F132045FEA915C3FF4DCAE4FF0DC
:1053900003025FEADC0C18BF03325FEADC0C18BFC3
:1053A000033202EBDC02C2F1200300FA03FC20FA14
:1053B00002F001FA03FE40EA0E0021FA02F1144461
:1053C000C1E600BF70B54FF0FF0C4CF4E06C1CEA76
:1053D00011541DBF1CEA135594EA0C0F95EA0C0FEB
:1053E00000F0DEF82C4481EA030621EA4C5123EA5E
:1053F0004C5350EA013518BF52EA033541F480118D
:1054000043F4801338D0A0FB02CE4FF00005E1FB3F
:1054100002E506F00042E0FB03E54FF00006E1FB89
:1054200003569CF0000F18BF4EF0010EA4F1FF04CC
:10543000B6F5007F64F5407404D25FEA4E0E6D410C
:1054400046EB060642EAC62141EA55514FEAC5201D
:1054500040EA5E504FEACE2EB4F1FD0C88BFBCF599
:10546000E06F1ED8BEF1004F08BF5FEA500E50F14A
:10547000000041EB045170BD06F0004646EA010110
:1054800040EA020081EA0301B4EB5C04C2BFD4EB42
:105490000C0541EA045170BD41F480114FF0000E3B
:1054A000013C00F3AB8014F1360FDEBF002001F0A9
:1054B000004170BDC4F10004203C35DA0C341BDC23
:1054C00004F11404C4F1200500FA05F320FA04F0F5
:1054D00001FA05F240EA020001F0004221F0004129
:1054E00010EBD37021FA04F642EB06015EEA430E9C
:1054F00008BF20EAD37070BDC4F10C04C4F12005CC
:1055000000FA04F320FA05F001FA04F240EA02007E
:1055100001F0004110EBD37041F100015EEA430E4F
:1055200008BF20EAD37070BDC4F1200500FA05F26F
:105530004EEA020E20FA04F301FA05F243EA0203EE
:1055400021FA04F001F0004121FA04F220EA0200FD
:1055500000EBD3705EEA430E08BF20EAD37070BD43
:1055600094F0000F0FD101F00046400041EB010123
:1055700011F4801F08BF013CF7D041EA060195F005
:10558000000F18BF704703F00046520043EB0303BF
:1055900013F4801F08BF013DF7D043EA06037047AC
:1055A00094EA0C0F0CEA135518BF95EA0C0F0CD0B7
:1055B00050EA410618BF52EA4306D1D181EA0301FD
:1055C00001F000414FF0000070BD50EA410606BFF7
:1055D0001046194652EA430619D094EA0C0F02D13C
:1055E00050EA013613D195EA0C0F05D152EA033681
:1055F0001CBF104619460AD181EA030101F000419F
:1056000041F0FE4141F470014FF0000070BD41F0E7
:10561000FE4141F4780170BD70B54FF0FF0C4CF4C1
:10562000E06C1CEA11541DBF1CEA135594EA0C0FE0
:1056300095EA0C0F00F0A7F8A4EB050481EA030E2D
:1056400052EA03354FEA013100F088804FEA033314
:105650004FF0805545EA131343EA12634FEA0222E2
:1056600045EA111545EA10654FEA00260EF00041A3
:105670009D4208BF964244F1FD0404F5407402D2F5
:105680005B084FEA3202B61A65EB03055B084FEA86
:1056900032024FF480104FF4002CB6EB020E75EB83
:1056A000030E22BFB61A754640EA0C005B084FEAAB
:1056B0003202B6EB020E75EB030E22BFB61A754628
:1056C00040EA5C005B084FEA3202B6EB020E75EB73
:1056D000030E22BFB61A754640EA9C005B084FEAEB
:1056E0003202B6EB020E75EB030E22BFB61A7546F8
:1056F00040EADC0055EA060E18D04FEA051545EAE7
:1057000016754FEA06164FEAC30343EA52734FEA8F
:10571000C2025FEA1C1CC0D111F4801F0BD141EA08
:1057200000014FF000004FF0004CB6E711F4801F6D
:1057300004BF01430020B4F1FD0C88BFBCF5E06F4D
:105740003FF6AFAEB5EB030C04BFB6EB020C5FEA5D
:10575000500C50F1000041EB045170BD0EF0004EB2
:105760004EEA113114EB5C04C2BFD4EB0C0541EAE4
:10577000045170BD41F480114FF0000E013C90E6E1
:1057800045EA060E8DE60CEA135594EA0C0F08BFA5
:1057900095EA0C0F3FF43BAF94EA0C0F0AD150EAA4
:1057A00001347FF434AF95EA0C0F7FF425AF104637
:1057B00019462CE795EA0C0F06D152EA03353FF45F
:1057C000FDAE1046194622E750EA410618BF52EADC
:1057D00043067FF4C5AE50EA41047FF40DAF52EAB0
:1057E00043057FF4EBAE12E74FEA4102B2F1E0432A
:1057F00024BFB3F5001CDCF1FE5C0DD901F0004CB8
:105800004FEAC0024CEA5070B2F1004F40EB830007
:1058100008BF20F00100704711F0804F21D113F133
:105820003872BCBF01F00040704741F480114FEA6C
:105830005252C2F11802C2F1200C10FA0CF320FAF5
:1058400002F018BF40F001004FEAC1234FEAD32312
:1058500003FA0CFC40EA0C0023FA02F34FEA43037C
:10586000CCE77FEA625307D150EA01331EBF4FF005
:10587000FE4040F44000704701F0004040F0FE4020
:1058800040F40000704700BF014B1868704700BF2C
:1058900070CAFF1F70B50E4B0E4CE41AA410002501
:1058A0001E46A54204D056F8253098470135F8E742
:1058B000FCF7C4FF084C094BE41AA41000251E464F
:1058C000A54204D056F8253098470135F8E770BD59
:1058D000ACCAFF1FACCAFF1FACCAFF1FACCAFF1F78
:1058E00010B5431E0A44914204D011F8014B03F84D
:1058F000014FF8E710BD02440346934202D003F87B
:10590000011BFAE770472DE9F04788B0002B149F80
:105910001299109EDDF84CA01D46B8BF05F100435A
:1059200027F02007B6BF1D4600232D231446B8BF1D
:105930001446462F0B7003D0452F03D1013601E0EA
:10594000032300E002238DE8480406AB039307AB72
:10595000049322462B4600F01FFD472F804602D1BC
:10596000119BDB0726D5462F08EB060911D198F8C5
:105970000030302B0AD1204629460022002302F0B5
:105980006FF818B9C6F10106CAF80060DAF80030FD
:105990009944204629460022002302F061F808B10C
:1059A000CDF81C90079B4B4504D25A1C079230221D
:1059B0001A70F7E7079B159AC8EB0303404613607C
:1059C00008B0BDE8F08773B503460029B8BF494267
:1059D00003F8022BB4BF2D222B220929427019DDB6
:1059E0000DF1070426460A2291FBF2F502FB151180
:1059F0003031092D04F8011D2946F4DC3031651ED3
:105A000004F8011CB5421A460AD215F8012B03F816
:105A1000012BF7E730241A46214402F8024B597053
:105A2000101A02B070BD00002DE9F04F91B08B4606
:105A300015461E461A9F044601F072FAD0F800A0DF
:105A4000504600F013FC00230E933B680990073387
:105A500023F00703D3E9000103F108029BF8188043
:105A60003A60CBE9120100F0B3FB0128DBE9120137
:105A700019D10022002301F0FDFF10B12D238BF876
:105A80004330A04BA04FB8F1470F88BF1F460323F8
:105A9000CBF81030DBF8003023F00403CBF80030F3
:105AA0004FF00009A1E000F093FBDBF8003048B9AB
:105AB000964A974FB8F1470F88BF17460322CBF895
:105AC0001020E9E7DBF804209BED127B571C8DEDDD
:105AD0000A7B01D1062209E0B8F1670F02D0B8F1C4
